:0C9000007583E8758200747EF0028348DE
:0C9020007583E8758200740CF002834830
:0C9040007583E875820074B6F002834866
:0C9060007583E8758200749EF00283485E
:0C9080007583E875820074CCF002834810
:0C90A0007583E875820074DAF0028348E2
:0C90C0007583E875820074FAF0028348A2
:0C90E0007583E8758200740EF00283486E
:0C9100007583E875820074FEF00283485D
:0C9120007583E875820074DEF00283485D
:10810000D2AFD2A9758901758C4C758A04D28C7551
:1081100083E87582037482F0758395758200741EFE
:10812000F0758395758201743AF0758395758202B6
:10813000740CF07A0078007583E8758201E075F0C0
:10814000088475F00284A9F075F0028475F0028449
:10815000ABF075F0028475F00284ADF0ED7004515F
:1081600027800251BCEA940470697583957582007A
:10817000E004F0E96009758395758203E004F07A04
:1081800000758395758200E0943C70477583957502
:108190008201E004F0758395758201E0943CFE75E0
:1081A00083957582007400F0EE7028758395758252
:1081B00002E004F0758395758202E0940DFE7583EC
:1081C000957582017400F0EE7009758395758202D1
:1081D0007401F0758395758203E0943C7047758354
:1081E00095758204E004F0758395758204E0943CF3
:1081F000FE7583957582037400F0EE702875839583
:10820000758205E004F0758395758205E0940DFE96
:108210007583957582047400F0EE70097583957509
:0F82200082057401F02137758395758203740010
:10822F00F07583957582047400F0758395758205DA
:10823F007400F07583E875820274FEF0758395758E
:10824F008201E075F00A84AFF0714971357583E8EA
:10825F0075820274FBF0EF714971357583E8758291
:10826F000274F7F0758395758200E075F00A84AF9C
:10827F00F0714971357583E875820274EFF0EF7113
:10828F004971357583E875820274DFF075839575D2
:10829F008202E075F00A84AFF0714971357583E899
:1082AF0075820274FDF0EF71497135ED227583E827
:1082BF0075820274FEF0758395758204E075F00A7D
:1082CF0084AFF0714971357583E875820274FBF0E4
:1082DF00EF714971357583E875820274F7F0758314
:1082EF0095758203E075F00A84AFF07149713575A9
:1082FF0083E875820274EFF0EF714971357583E889
:10830F0075820274DFF0758395758205E075F00A4A
:10831F0084AFF0714971357583E875820274FDF091
:10832F00EF714971352275839075820075F020A425
:10833F00FCE58325F0F583EC73227C0A7E64DEFE78
:03834F00DCFA2233
:0DFFF0000A758901758C4C758A04D28C321B
:00000001FF
